:020000040800F2
:100000000808002001030008B55200081148000844
:10001000B1520008A5150008656300080000000043
:10002000000000000000000000000000F15800087F
:10003000A9150008000000002553000849590008D0
:100040001B0300081B0300081B0300081B03000818
:100050001B0300081B0300081B0300081B03000808
:100060001B0300081B0300081B0300081B030008F8
:100070001B0300081B0300081B0300081B030008E8
:100080001B0300081B0300081B0300081B030008D8
:100090001B0300081B0300081B0300081B030008C8
:1000A0001B0300081B0300081B0300081B030008B8
:1000B0001B0300081B0300081B0300081B030008A8
:1000C0001B0300081B0300081B0300081B03000898
:1000D0001B0300081B0300081B0300081B03000888
:1000E0001B0300081B0300081B0300081B03000878
:1000F0001B0300081B0300081B0300081B03000868
:100100001B0300081B0300081B0300081B03000857
:100110001B0300081B0300081B0300081B03000847
:100120001B0300081B0300081B0300081B03000837
:100130001B0300081B0300081B0300081B03000827
:100140001B0300081B0300081B0300081B03000817
:100150001B0300081B0300081B0300081B03000807
:100160001B0300081B0300081B0300081B030008F7
:100170001B0300081B0300081B030008000000000D
:100180001B0300081B03000800F002F800F0A8F8A9
:1001900014A696E8000CB244B344DA4501D100F04D
:1001A0009FF8BAE80F000FA696E83000A5EB04050B
:1001B00004EB0607AAEB0704A7F101074FEA1515A0
:1001C0004FEA3414A4F10104AC4201D300F088F8E2
:1001D00013F0010F18BFFB1A43F0010300F001F800
:1001E000DBE718475C6E00007C6E0000103A24BF0D
:1001F00078C878C1FAD8520724BF30C830C144BF8C
:1002000004680C6070470000704700000023002461
:1002100000250026103A28BF78C1FBD8520728BF16
:1002200030C148BF0B6070476E2900F0D58170293E
:1002300000F00F83662906F02D86652906F02A86D0
:10024000672906F02786612906F0268603681B0ABF
:1002500028BF41F08001692900F08281642900F003
:100260007F81752900F07C816F2900F09D827829BB
:1002700000F0DB82E92900F03782E42900F03482C3
:10028000F52900F03182EF2900F09A82F82900F078
:10029000DA820368DB0928BF41F08001632900F09E
:1002A000FD87732901F00280E32901F00D80F32915
:1002B00001F01280002070471FB506F0DEFD01F04E
:1002C00065F804000020002106F04AFD401C606033
:1002D0000020002106F02EFDE0601FBD10B510BD0E
:1002E00001F026F81146FFF7E7FF06F097F801F056
:1002F00003F903B4FFF7F2FF03BC01F04BF9000070
:100300000948804709480047FEE7FEE7FEE7FEE7A9
:10031000FEE7FEE7FEE7FEE7FEE7FEE704480549E5
:10032000054A064B70470000D559000889010008AE
:10033000080200200808002008040020080400200B
:1003400053EA020C00F069802DE9F04B4FF00006F3
:10035000002B1FBFB3FA83F503FA05F424FA05F660
:100360005E4012BF1643B2FA82F502FA05F4C5F1F7
:1003700020051EBF22FA05FC44EA0C04203556EA8B
:10038000044C4FEA144418BF641C4FF000084FF0AF
:100390000009904271EB030C39D3002919BFB1FA5F
:1003A00081F701FA07F6B0FA80F700FA07F6C7F10D
:1003B00020071EBF20FA07FC46EA0C062037B6FBD2
:1003C000F4FCA7EB0507103F07F01F0BCBF120064D
:1003D0002CFA06F60CFA0BFB44BFB3460026202F7E
:1003E000A4BF5E464FF0000B5BEA060C08BF4FF05F
:1003F000010B19EB0B0948EB0608ABFB027C06FB73
:1004000002CC0BFB03CCC01B71EB0C01C1E70B460C
:10041000024641464846BDE8F08B13B5084318BF75
:100420004FF0FF300146AFF30080BDE81C4070473D
:100430000FB4044910B503AA029800F0E1F810BC0B
:100440005DF814FB700000204FF0000200B5134669
:1004500094469646203922BFA0E80C50A0E80C50E4
:10046000B1F12001BFF4F7AF090728BFA0E80C5095
:1004700048BF0CC05DF804EB890028BF40F8042B8E
:1004800008BF704748BF20F8022B11F0804F18BFFB
:1004900000F8012B704770477047704770B50446ED
:1004A00085690068C10601D5302600E02026C00716
:1004B00007D070BDD4E9012130469047206A401C26
:1004C00020626D1EF6D570BD70B504468569007852
:1004D000C00707D170BDD4E9012120209047206AD0
:1004E000401C20626D1EF6D570BD09684A0501D515
:1004F00040B27047C905FCD500B2704709684A058B
:1005000001D5C0B27047C905FCD580B2704770B53F
:100510000C460546012A05D02878800600D5EA69F0
:10052000002302E0012305E05B1C934202D2E05C61
:100530000028F9D1A869E618C01AA861286A1844E9
:1005400028622846FFF7AAFF04E0D5E9012114F844
:10055000010B9047B442F8D32846FFF7B5FF70BDB2
:100560002DE9F0410646002410687529314616A58C
:1005700010D0FFF7BAFF002802DA404213A507E0C7
:1005800031688A0701D512A502E0490704D511A5F3
:10059000012401E0FFF7B2FF00210A2206F124073F
:1005A00009E0B0FBF2FCB0FBF2F302FB1C003030C0
:1005B00078541846491C0028F3D123462A46304671
:1005C000BDE8F04100F05CBA000000002D00000022
:1005D0002B0000002000000011680268006A53052B
:1005E00001D508700AE0D30501D5088006E013069E
:1005F00003D5C217C1E9000200E00860012070477E
:10060000074B70B50D467B4400F02BFE0446284690
:1006100000F066FE10B14FF0FF3070BD204670BD97
:10062000EF5D00002DE9FF5F15468A460446DFF8BE
:10063000AC80F8440027D8E900103E46CDE9001010
:1006400010E03AF816106A4602A800F04DFE411C70
:1006500007D02178890603D5E269391891420DD86F
:100660000744761C2078800602D5E069B84205DD93
:10067000AE42E6DB3AF816000028E2D1A069C01BC2
:10068000A0612046FFF70AFFD8E90010CDE900106D
:10069000002017E03AF818106A4602A800F024FE7D
:1006A000B0F1FF3F81460BD000250DF1080B05E0AE
:1006B000D4E901211BF8050090476D1C4D45F7D387
:1006C00008F10100B0428046E4DB206A3844206231
:1006D0002046FFF7F9FE00F003B80000666800004E
:1006E0003FBCBDE8C09F00002DE9F0418046D21D0F
:1006F00022F007020025D2E90002F52915A614D040
:10070000011E72F1000106DA0023D0EB030063EB57
:10071000020211A608E0D8F800108B0701D50FA639
:1007200002E0490701D50EA601251146002408F173
:10073000240704E000F05FF930323A55641C50EAB7
:100740000102F7D12B46324621464046BDE8F04132
:1007500000F096B9000000002D0000002B00000002
:100760002000000030B4002100F1240408E002F071
:100770000705D208303542EA4372DB086554491C4C
:1007800052EA0305F3D10468002310A2250708D517
:1007900004F020040C4304D0C46901230CA2641E9D
:1007A000C46130BC00F06CB910B504462146106835
:1007B000FFF7A4FE02462046BDE810400023D1E723
:1007C000D21D22F00701D1E90023CBE70000000091
:1007D00030000000F0B40D460188090502D5214C17
:1007E0007C4402E01F4C7C440E34002100F12406BE
:1007F00008E002F00F071209E75D42EA03721B09E5
:100800007754491C52EA0307F3D1027800231207F8
:1008100004D5702D06D009B1022311342246F0BC54
:1008200000F02EB901231034F8E770B504460D46E8
:1008300021461068FFF762FE024629462046BDE8C1
:1008400070400023C6E7D21D22F00703D3E900233E
:10085000C0E70368126843F0200303600823C36104
:100860000023B7E7C06600002DE9F05F8946044623
:100870004FF0000ADFF874B1FB44C0F820A0204616
:10088000E1688847002874D0252806D0D4E90121E2
:100890009047206A401C2062F1E700265F46204610
:1008A000E16888472028054607DB312D05D27819F5
:1008B00010F8200C08B10643F1E7B00701D526F087
:1008C0000406C4F81CA00027C4F818A02A2D09D0DB
:1008D000284606F027FA38B304EB8708303DC8F8FD
:1008E000185019E059F8041B204604EB8702916167
:1008F000E1688847012F054618D1E069002820DA11
:1009000026F020061DE0D8F8180000EB800005EB6B
:1009100040003038C8F818002046E168884705468E
:1009200006F000FA0028EED1012F0AD02E2D08D1B2
:100930002046E16888477F1C0546022F46F02006C6
:10094000C4DBA069002803DA404246F00106A0613A
:10095000F00701D026F010066C2D0BD0682D09D0C1
:100960004C2D39D06A2D35D0742D35D07A2D33D019
:1009700016E038E0E1682F4620468847B842054631
:1009800009D16C2F26D04FF48060E16806432046E1
:100990008847054604E06C2F1AD04FF48070064358
:1009A0000DB3A5F14100192802D8203546F40066A0
:1009B0004A462946204626604E46FFF735FC80B160
:1009C00001280BD0F61D26F0070000F1080956E7B4
:1009D0004020E4E78020D8E70020D6E706F10409AC
:1009E0004DE7284652E7206A00F002B85066000042
:1009F00030BCBDE8C09F30B5B0F10A0271F1000310
:100A00004FEA900E4EEA817EB0EB0E0061EB910151
:100A10004FEA101E4EEA017E10EB0E0041EB111161
:100A20004FEA102E4EEA016E10EB0E0041EB112141
:100A30004FEA104E4EEA014E10EB0E0041EB114111
:100A4000401841F100014FEAD00040EA41704FEAFE
:100A5000D1014FEA810444EA907410EB800544EB25
:100A600001046D1944EB0404521BA3414FF0000331
:100A700048BF0A3200D530BD401C41F1000130BDF5
:100A80002DE9F0470D4699469246044600F12408A8
:100A90000168880604D5E06921F01001216000E0BA
:100AA0000120A84201DD471B00E00027A1697A1957
:100AB00002EB0900081AA0612078C00602D4204683
:100AC000FFF7ECFC002608E0D4E901211AF8060043
:100AD0009047206A401C761C20624E45F4DB20784B
:100AE000C0060AD52046FFF7D9FC06E0D4E901216B
:100AF00030209047206A401C2062381EA7F1010771
:100B0000F4DC07E0D4E9012118F805009047206AD9
:100B1000401C2062281EA5F10105F3DC2046FFF7EA
:100B2000D3FC2078000602D50220BDE8F087012022
:100B3000FBE72DE9FF4F0C461E464FF0FF378BB009
:100B4000D2E90001DDF860800A908A46C1F30A55B7
:100B500005B93D46002108464FF00000BAF1000FEC
:100B600000F4400005DA00EB80004FF4400101EA98
:100B700050004FEA9059B9F1010F00DDB9460A98CB
:100B800050EA4A000ED044F61050A5F2FF35454316
:100B90002F14B8F1000F1ED07542291E1EDDC9F1B9
:100BA00000021CE0B8F1010F4FF0000001D030212D
:100BB00003E0F24305E02154401CB042FBDB304629
:100BC0000022002121540B99C1F80880C1E90020BE
:100BD0000FB000F0BCB9BD1B6D1CDEE74A4600DA61
:100BE000694206A800F016FC06AB93E8070003ABC9
:100BF00083E8070050460A9905F0B4FC8DE8070029
:100C0000A0F500501F3800900398002D0ADD42F235
:100C10001F014A460844002303A90390684605F0D3
:100C20001DFF09E0A0F500504A461F38002303A924
:100C30000390684605F027FF8DE807000004000CCC
:100C400003D04FF0FF30410800E01046B8F1000F2C
:100C500003D00022009215461EE0751E05D4FFF752
:100C6000CAFE303262556D1EF9D5B34601220843E3
:100C700002D000227F1C04E02078302801D100221D
:100C80007F1E002A099784D01DE0112D07DAFFF797
:100C9000B2FE303262556D1C50EA0102F5D10843B4
:100CA00002D00098C8B10EE00021681E05E0235C68
:100CB000625C63542254401E491C8142F7DBAB4600
:100CC000A81B401E0990002004F80B000B98099AFD
:100CD000C0F80880C0E9002B7AE711264FF0000821
:100CE00057E72DE9F04F88460446D21D22F0070150
:100CF00091B0D1E90001CDE90A0105F0FBFF024600
:100D00000B98C00F01D02D2007E02068810701D586
:100D10002B2002E0202101EAC000032A099001D023
:100D2000072A05DB03464146204600F033FB0BE172
:100D30002078800601D5E06900E00620B8F1650F53
:100D4000814606D0B8F1660F18D0B8F1670F70D1A0
:100D500031E00020B9F1110F009001DB112301E017
:100D600009F101030AAA01A90CA8FFF7E2FEDDE9D7
:100D70000C70002609F10105834647E001204B462F
:100D800000904FF000470AAA01A90CA8FFF7D1FE76
:100D9000DDE90DB00C995D46002610B909F101009E
:100DA0000D18B9EB050003D4C0F1FF3609F10105B8
:100DB000A5EB09002BE0B9F1010F01DA4FF00109B1
:100DC0000020B9F1110F0090484601DD112300E029
:100DD00003460AAA01A90CA8FFF7ABFEDDE90C70D7
:100DE0004D4600268346207800070AD4AB4500DA3A
:100DF0005D4601A8012D04DD411911F8011C3029BF
:100E000007D04F4502DA17F1040F04DA01208246B9
:100E10000FE06D1EEEE7002F02DCED1B3E4403E009
:100E2000781CA84200DD7D1CB81B00F1010A4FF0C0
:100E300000472078000703D4AA4501DB4FF0FF3AB2
:100E40000021B7F1004F0DF143088DF8431024D075
:100E500002202B23002F01DA7F422D230A21021EBC
:100E6000A0F1010000DC5FB197FBF1FC97FBF1F210
:100E700001FB1C7C17460CF1300C08F801CDEEE7A5
:100E8000A8F1010003702188090501D5452100E082
:100E90006521A0F1010800F8011C09980FA9A1EB38
:100EA0000807FF1D00B10120411901EBEA70A1699B
:100EB0003844081A401EA0612078C00602D420469B
:100EC000FFF7ECFA099828B1D4E901219047206A8C
:100ED000401C20622078C00622D52046FFF7DEFAAB
:100EE0001EE0002E04DBB34502DD01A8805D00E0BA
:100EF0003020D4E901219047206A401C2062761CF2
:100F0000AAF101005FEA000A0AD100F03FFAC068C6
:100F10000168405CD4E901219047206A401C2062AE
:100F2000281EA5F10105DCDC07E0D4E9012118F851
:100F3000010B9047206A401C2062381EA7F1010770
:100F4000F3DC2046FFF7C0FA032011B041E630BCC5
:100F5000BDE8C08F2DE9F04F04460D46D21D22F0AA
:100F6000070089B0D0E900974846394605F0C2FE2F
:100F70000246F80F01D02D2307E02068810701D534
:100F80002B2302E0202101EAC0038DF820300BB1B1
:100F9000012000E00020032A824601D0072A04DB5A
:100FA0002946204600F0F6F93FE12078800601D47A
:100FB0000D2500E0E569C7F30A560D2D49DA002139
:100FC0004FEA175B08464FF00000002F00F4400086
:100FD00007DA00EB80004FF4400100EBD07001EA2B
:100FE00060008115012901DD4FF0FF3100224FEA39
:100FF000850CBCF1180F06D31346ACF118004FF066
:101000008052C24003E04FF4801323FA0CF30CF13A
:101010000C0CBCF1200F04D3ACF1200C09FA0CF03D
:1010200001E007FA0CF000294FF0004801DD18B983
:101030000FE00ED140450CD319EB02095F4121B9F5
:10104000404502D19F4329EA0209BBEB175F00D05C
:10105000761C2088000502D57B48784402E07A4857
:101060007844193808AA302302F80A30037C0AF1C0
:101070000101002E0AF1020A53546A4602DC4FF0C5
:10108000300101E04FF031014FF001088DF8001000
:1010900002D0A6F2FF3603E059EA470100D06B4EBA
:1010A000002D02DC2178090704D54FF002082E211B
:1010B0008DF80110C44600210BE0C7F303433F0144
:1010C000C35C491C6D1E02F80830052908F10108AF
:1010D00001DA002DF1DC00210CE000EB1973491C52
:1010E0001B786D1E082902F808304FEA091908F12B
:1010F000010801DA002DF0DC21688B0602D516E02C
:10110000A8F10108E04505DD02EB080313F8013CF6
:10111000302BF5D0B8F1000F09DD02EB080313F80E
:10112000013C2E2B03D1090701D4A8F10108002DA1
:1011300005DD3E2102F808106D1E08F10108407C13
:10114000002E02F8080008F1010804DA2D2076428A
:1011500002F8080002E02B2002F808000A214FF4F0
:101160007A70864208F101080BDB96FBF0F330330E
:1011700002F8083096FBF0F308F1010800FB136653
:1011800001E0642E0CDB642096FBF0F3303302F8B0
:10119000083096FBF0F308F1010800FB136601E04C
:1011A0000A2E06DB96FBF1F0303002F8080008F159
:1011B000010896FBF1F001FB1060303002F80800E6
:1011C000A16908F1010808EB050202EB0A00081A00
:1011D000A0612078C00602D42046FFF75FF9216A9B
:1011E00008AE01EB0A00206204E0D4E9012116F800
:1011F000010B9047BAF1010AF7D22078C00602D558
:101200002046FFF74BF96E4609E016F8010B3E2821
:101210000FD0D4E901219047206A401C2062B8F128
:101220000108F2D22046FFF74FF909B0032000F081
:101230000FB8206A2844206203E0D4E9012130205D
:1012400090476D1EEBD3F8E7925E000002FCFFFFB3
:1012500030BCBDE8C08F000001694A1C02610878FB
:10126000704700B58FB0CDE90131002105910549E6
:101270007944CDE9031011466846FFF7F5FA0FB03F
:1012800000BD0000E5FFFFFF10B5436913B1AFF3E8
:10129000008001E0FFF73BF9012010BD127800F15A
:1012A00024010A7000224A700122EDE711684FF014
:1012B000FF32E9E710B5436913B1AFF3008001E0F5
:1012C000FFF7B0F9012010BD128800F124018284DB
:1012D0000022C2840122EDE711684FF0FF32E9E7F6
:1012E000007B00F0800070472DE9F04116460C4667
:1012F000054600F043F8036893F80101012807D080
:10130000FF2C12D8185D80B101202C70BDE8F0814F
:10131000D3F807013246214603F20713C7182846BF
:10132000BC46BDE8F041002360474FF0FF30EDE7D9
:10133000754600F0EBF8AE4605006946534620F0CE
:101340000700854618B020B5FEF7E8FFBDE820404D
:101350004FF000064FF000074FF000084FF0000B71
:10136000AC46ACE8C009ACE8C009ACE8C009ACE8E0
:10137000C00921F007018D467047000010B500F04C
:1013800005F8001D10BD00BFD95900000048704786
:10139000300000202DE9F0411F4604460326016875
:1013A000072A01F4006004DB08B116A505E016A5C4
:1013B00003E008B115A500E015A521F0100020609C
:1013C000A069C01EA0610FB1401EA0612046FFF7BA
:1013D00065F84FB1D4E9012138469047206A401C96
:1013E0002062C01C206206E0206AFAE7D4E90121ED
:1013F00015F8010B9047761EF8D22046FFF764F8E7
:10140000BDE8F0814E414E006E616E00494E4600CF
:10141000696E66002DE9F047814616468AB0354868
:1014200078440DC88DE80D0032487844801C03AC28
:101430000DC884E80D0041F69B300844372190FB2D
:10144000F1F290FBF1F5A5F1800501FB12041B3CC4
:1014500002D56442012000E00020DFF898A0804619
:101460000027FA44AAF1BE0A0EE0E0070AD032468D
:10147000684607EB470101230AEB810105F003FBF6
:101480008DE8070064107F1C002CEED1194F7F44BB
:10149000AE3F19E0E80715D007EB04100DF1180A6C
:1014A00090E80E008AE80E00C068F04201D1981959
:1014B00008903246012306A903A805F0E4FA03AB1D
:1014C00083E807006D10641C002DE3D14FF0010389
:1014D00032466946B8F1000F03A802D005F0BEFA03
:1014E00001E005F0D0FAC9E90001C9F808200AB006
:1014F000BDE8F0875C5B000010B50446AFF30080E8
:101500002046BDE81040FEF7F4BE000000487047DA
:10151000100000200000000030B44FF0013C50F8F3
:10152000042B51F8043BCCFA52F4D51A20D1FCB963
:1015300050F8042B51F8043BCCFA52F4D51A17D1C9
:10154000B4B950F8042B51F8043BCCFA52F4D51A34
:101550000ED16CB950F8042B51F8043BCCFA52F47C
:10156000D51A05D1002CDAD030BC4FF000007047FE
:1015700029BAB1FA81F111F01801D1F120008440AB
:10158000F2D1CA40CB4012F0FF0213F0FF0330BC8F
:10159000D01A704701491820ABBEFEE726000200B2
:1015A00070470000FFE7FEE77047000081B0EFF3EF
:1015B000108072B60090FFE7FEE7000080B5A4B08F
:1015C0002290219100208DF883002198006808B1B5
:1015D000FFE7FFE7FFE7229890F85000012804D1C9
:1015E000FFE702208DF88F00B7E02299012081F8F3
:1015F0005000FFE7FFE700201B901C902298006836
:101600000021C5F20401884206D1FFE740F2001034
:10161000C5F20400069002E000200690FFE706985D
:1016200078B9FFE72299486D40F020004865FFE750
:101630002299002081F85000FFE701208DF88F00EB
:101640008BE0069803F032FC05902298006803F0C6
:101650002DFC00286DD1FFE70598002869D1FFE730
:1016600040F20030C5F204001F9021980068B8B322
:10167000FFE71F98806820F4604021994968229A0A
:1016800092F8302041EA423108431F9988600020D7
:10169000C5F2040003F0F2FB039040F20010C5F223
:1016A000040003F0EBFB014603980843049040F26A
:1016B0000020C5F2040003F0E1FB01460498084352
:1016C00068B9FFE71F98806840F61F718843219A28
:1016D00011689268114308431F998860FFE727E06B
:1016E0001F99886820F4604088600020C5F20400DB
:1016F00003F0C4FB019040F20010C5F2040003F0B7
:10170000BDFB014601980843029040F20020C5F25B
:10171000040003F0B3FB01460298084338B9FFE721
:101720001F99886840F61F7290438860FFE7FFE7C3
:1017300008E02299486D40F02000486501208DF8AE
:101740008300FFE7FFE72299002081F85000FFE7C0
:101750009DF883008DF88F00FFE79DF88F0024B07F
:1017600080BD000080B5C2B02290219100208DF88C
:1017700083001D902198C0680021C4F27F01884237
:1017800001D0FFE700E0FFE7FFE7229890F8500064
:10179000012804D1FFE702208DF88F00D4E32299BD
:1017A000012081F85000FFE7FFE72298006803F06E
:1017B00075FB002840F0B483FFE7219840681A9039
:1017C0002198406805281DD8FFE721984068023815
:1017D00001461991032811D81999DFE801F0020593
:1017E000080B0C201A900CE012201A9009E0182027
:1017F0001A9006E04FF480701A9002E006201A90CA
:10180000FFE7FFE7229800681A99219A126803F00F
:1018100055FB2298006803F041FB1C902298006859
:1018200003F014FB1B901C98002840F08B81FFE70D
:101830001B98002840F08681FFE722980068219AD3
:101840001168926803F058FB219840692299096851
:10185000C96801F01801890888401F902198006923
:10186000042809D0FFE72298006821990A680969CD
:101870001F9B03F093FB64E122980068002103F0B2
:10188000D5FA400348B9FFE722980068002103F029
:10189000CDFAC0F38460189018E022980068002107
:1018A00003F0C4FA90FAA0F04090409820B9FFE706
:1018B00020208DF8070105E04098B0FA80F08DF8FF
:1018C0000701FFE79DF807011890FFE718981790A8
:1018D00021980068400330B9FFE721980068C0F301
:1018E0008460169015E02198006890FAA0F03E9070
:1018F0003E9820B9FFE720208DF8FF0005E03E98D4
:10190000B0FA80F08DF8FF00FFE79DF8FF00169019
:10191000FFE717981699884207D1FFE722980068D9
:101920000022114603F058FBFFE7229800680121CE
:1019300003F07CFA400348B9FFE7229800680121D0
:1019400003F074FAC0F38460159018E022980068E0
:10195000012103F06BFA90FAA0F03C903C9820B97A
:10196000FFE720208DF8F70005E03C98B0FA80F002
:101970008DF8F700FFE79DF8F7001590FFE7159841
:10198000149021980068400330B9FFE7219800685F
:10199000C0F38460139015E02198006890FAA0F0DD
:1019A0003A903A9820B9FFE720208DF8EF0005E043
:1019B0003A98B0FA80F08DF8EF00FFE79DF8EF005D
:1019C0001390FFE714981399884207D1FFE72298F4
:1019D00000680121002203F0FFFAFFE72298006867
:1019E000022103F023FA400348B9FFE72298006878
:1019F000022103F01BFAC0F38460129018E02298D1
:101A00000068022103F012FA90FAA0F0389038989A
:101A100020B9FFE720208DF8E70005E03898B0FAFC
:101A200080F08DF8E700FFE79DF8E7001290FFE7F0
:101A30001298119021980068400330B9FFE721986F
:101A40000068C0F38460109015E02198006890FA57
:101A5000A0F03690369820B9FFE720208DF8DF00FF
:101A600005E03698B0FA80F08DF8DF00FFE79DF8CA
:101A7000DF001090FFE711981099884207D1FFE727
:101A8000229800680221002203F0A6FAFFE72298BC
:101A90000068032103F0CAF9400348B9FFE7229820
:101AA0000068032103F0C2F9C0F384600F9018E0CE
:101AB00022980068032103F0B9F990FAA0F034905D
:101AC000349820B9FFE720208DF8D70005E034983E
:101AD000B0FA80F08DF8D700FFE79DF8D7000F909F
:101AE000FFE70F980E9021980068400330B9FFE798
:101AF00021980068C0F384600D9015E0219800687B
:101B000090FAA0F03290329820B9FFE720208DF8AB
:101B1000CF0005E03298B0FA80F08DF8CF00FFE7F3
:101B20009DF8CF000D90FFE70E980D99884207D1E0
:101B3000FFE7229800680321002203F04DFAFFE737
:101B4000FFE7FFE72298006803F090F9002840F0D3
:101B50004481FFE722980068219A1168D26803F057
:101B6000E7F92198C0680021C4F27F01884240F063
:101B70003381FFE7229800680C90219800684003A9
:101B800030B9FFE721980068C0F384600B9015E03E
:101B90002198006890FAA0F03090309820B9FFE7C3
:101BA00020208DF8C70005E03098B0FA80F08DF85D
:101BB000C700FFE79DF8C7000B90FFE70B980130C7
:101BC00000F01F0009287DD8FFE721980068400336
:101BD00030B9FFE721980068C0F384600A9015E0EF
:101BE0002198006890FAA0F02E902E9820B9FFE777
:101BF00020208DF8BF0005E02E98B0FA80F08DF817
:101C0000BF00FFE79DF8BF000A90FFE70A98013088
:101C100000F01F008006099021980068400330B949
:101C2000FFE721980068C0F38460089015E02198D0
:101C3000006890FAA0F02C902C9820B9FFE72020A3
:101C40008DF8B70005E02C98B0FA80F08DF8B70059
:101C5000FFE79DF8B7000890FFE709980899013160
:101C600001F01F020121914008430790219800686C
:101C7000400330B9FFE721980068C0F38460069004
:101C800015E02198006890FAA0F02A902A9820B9CF
:101C9000FFE720208DF8AF0005E02A98B0FA80F029
:101CA0008DF8AF00FFE79DF8AF000690FFE70798BB
:101CB0000699013101F01F0101EB410140EA015099
:101CC000059082E021980068400330B9FFE7219831
:101CD0000068C0F38460049015E02198006890FAD1
:101CE000A0F02890289820B9FFE720208DF8A700C1
:101CF00005E02898B0FA80F08DF8A700FFE79DF87E
:101D0000A7000490FFE70498013000F01F00800650
:101D1000039021980068400330B9FFE721980068DC
:101D2000C0F38460029015E02198006890FAA0F05A
:101D30002690269820B9FFE720208DF89F0005E027
:101D40002698B0FA80F08DF89F00FFE79DF89F007D
:101D50000290FFE703980299013101F01F0201216F
:101D600091400843019021980068400330B9FFE793
:101D700021980068C0F38460009015E02198006805
:101D800090FAA0F02490249820B9FFE720208DF845
:101D9000970005E02498B0FA80F08DF89700FFE7EF
:101DA0009DF897000090FFE701990098013000F03E
:101DB0001F0000EB40020020CFF6206000EB025035
:101DC000084340F000700590FFE70C980599219AB0
:101DD000926803F091F8FFE7FFE72198408848F206
:101DE0000801084200F09B80FFE740F20030C5F296
:101DF000040003F013F81E90219800680021CCF233
:101E0000527188423DD1FFE79DF87A000006002814
:101E100037D4FFE7229800680021C5F20401884208
:101E200009D0FFE72298006840F20021C5F20401C2
:101E3000884225D1FFE71E9840F4000140F20030AF
:101E4000C5F2040003F09CF840F20000C2F200006A
:101E50000068800942F66351C0F23E51A0FB0110B8
:101E6000800900EB40010C2000EB81001D90FFE792
:101E70001D9820B1FFE71D9801381D90F8E7FFE796
:101E80004CE0219800680021CCF68431884221D1B1
:101E9000FFE79DF87B00C007E0B9FFE722980068E4
:101EA0000021C5F20401884209D0FFE722980068AA
:101EB00040F20021C5F2040188420AD1FFE71E98D2
:101EC00040F0807140F20030C5F2040003F058F891
:101ED000FFE722E0219800680121C8F20001884252
:101EE00019D1FFE79DF87A004006002813D4FFE7D8
:101EF000229800680021C5F2040188420AD1FFE758
:101F00001E9840F4800140F20030C5F2040003F056
:101F100037F8FFE700E0FFE7FFE7FFE7FFE708E04C
:101F20002299486D40F02000486501208DF883001B
:101F3000FFE7FFE72299002081F85000FFE79DF8B6
:101F400083008DF88F00FFE79DF88F0042B080BDC1
:101F500080B58AB0089000208DF81F000390089883
:101F600020B9FFE701208DF827004EE108980069AD
:101F700040B1FFE7089890F82000012801D1FFE761
:101F8000FFE7FFE70898406D50B9FFE7089800F0B9
:101F900041F9089900208865089981F85000FFE709
:101FA0000898006802F05AFF28B1FFE70898006817
:101FB00002F018FFFFE70898006802F067FFF0B929
:101FC000FFE70898006802F019FF40F20000C2F233
:101FD00000000068800942F66351C0F23E51A0FB48
:101FE00001108109022000EB41000390FFE70398F4
:101FF00020B1FFE7039801380390F8E7FFE708985E
:10200000006802F043FF70B9FFE70899486D40F09F
:10201000100048650899886D40F00100886501202E
:102020008DF81F00FFE70898006802F037FF059061
:102030000898406DC006002800F1D980FFE7059898
:10204000002840F0D480FFE70898406D40F002007F
:1020500020F48070089948650898006802F006FF2F
:1020600028BBFFE70020C5F2040002F0FFFE01904C
:1020700040F20010C5F2040002F0F8FE014601989B
:102080000843029040F20020C5F2040002F0EEFE88
:1020900001460298084348B9FFE70898416840F2B2
:1020A0000030C5F2040002F05DFFFFE7FFE708998A
:1020B0004A7E486B40EA42308A68CB681843104336
:1020C00091F8201040EA01400690089890F820000E
:1020D00001280BD1FFE70898416A0020CFF6FE7077
:1020E00000EB4141069808430690FFE70898806A94
:1020F00050B1FFE70899886AC96A00F4707001431B
:10210000069808430690FFE708980068C0684CF2FC
:102110000701CFF6F071084006990843089909684D
:10212000C8600898006802F091FE04900598E8BB2A
:10213000FFE70498D0BBFFE70899087E91F83010BC
:10214000800340EA4100069008980068C06844F2A5
:10215000020188430699084308990968C8600898ED
:1021600090F83800012819D1FFE708980068006945
:1021700040F2FD7120EA0102089B1968D86BD3F880
:1021800040E0D3F844C040EA0E0040EA0C009B6CEB
:102190001843104340F00100086106E00898016808
:1021A000086920F001000861FFE7FFE7089800696F
:1021B00001280CD1FFE708980068006B20F00F00A1
:1021C000089A1168D269013A1043086306E008983A
:1021D0000168086B20F00F000863FFE70898406D66
:1021E00040F0010020F002000899486508E00899D5
:1021F000486D40F01000486501208DF81F00FFE792
:102200009DF81F008DF82700FFE79DF827000AB012
:1022100080BD000080B5AAB02990002028902790AA
:1022200026902590249002A88821FEF70DF9299880
:1022300000680021C5F20401884245D1FFE74FF450
:10224000804002904FF080502090022003900121A6
:1022500004910821059107210691079008904FF0FD
:102260008070099002A800F039FF18B1FFE7FFF76E
:102270009DF9FFE7FFE741F24C00C4F2020001685C
:1022800041F400510160006800F400500190019891
:10229000FFE7FFE741F24C00C4F20200016841F0A1
:1022A00001010160006800F0010000900098FFE764
:1022B000012024900B202590002026904FF0904084
:1022C00024A900F025F8FFE72AB080BD80B584B0CE
:1022D000039000F015FA02900398019001980130E4
:1022E00048B1FFE740F20400C2F200000178019813
:1022F00008440190FFE7FFE700F002FA0299401A54
:102300000199884201D2FFE7F6E704B080BD0000E2
:102310008CB00B900A9100200990FFE70A980068A2
:102320000999C840002800F0D281FFE70A980068A8
:10233000099A01219140084008900898002800F06F
:10234000C281FFE70A98406800F00300012807D027
:10235000FFE70A98406800F0030002282FD1FFE74A
:102360000B988068079009984100032000FA01F15A
:102370000798884307900A98C0680999490000FAAD
:1023800001F107980843079007980B9988600B980C
:10239000406807900999012000FA01F107988843E5
:1023A00007900A984068C0F30010099900FA01F1FB
:1023B00007980843079007980B994860FFE70A9829
:1023C000406800F00300032818D1FFE70B98C06AAB
:1023D00007900999012000FA01F1079888430790B6
:1023E0000A984068C0F3C000099900FA01F1079803
:1023F0000843079007980B99C862FFE70A9840685E
:1024000000F00300032818D0FFE70B98C06807907E
:1024100009984100032000FA01F1079888430790CA
:102420000A9880680999490000FA01F10798084361
:10243000079007980B99C860FFE70A98406800F07A
:102440000300022826D1FFE70B9809996FF00302D9
:1024500002EA51010844006A0790099800F0070059
:1024600081000F2000FA01F10798884307900A982D
:102470000069099901F00701890000FA01F1079844
:102480000843079007980B99099B02EA53021144ED
:102490000862FFE70B980068079009984100032045
:1024A00000FA01F10798884307900A98406800F005
:1024B00003000999490000FA01F1079808430790C1
:1024C00007980B9908600A9880798007002800F027
:1024D000F980FFE7FFE741F26000C4F20200016803
:1024E00041F001010160006800F0010006900698CB
:1024F000FFE7099820F003000821C4F201014058C9
:102500000790099800F0030081000F2000FA01F104
:102510000798884307900B98B0F1904F03D1FFE7DD
:102520000020059050E00B9840F20041C4F60001F5
:10253000884203D1FFE70120049042E00B9840F667
:102540000001C4F60001884203D1FFE70220039096
:1025500034E00B9840F60041C4F60001884203D1F4
:10256000FFE70320029026E00B9841F20001C4F639
:102570000001884203D1FFE70420019018E00B9886
:1025800041F20041C4F60001884203D1FFE7052073
:1025900000900AE00B9941F60002C4F60002072001
:1025A000914208BF06200090FFE700980190FFE7E6
:1025B00001980290FFE702980390FFE703980490C8
:1025C000FFE704980590FFE70598099901F00301DA
:1025D000890000FA01F107980843079007980999C4
:1025E00021F003010822C4F20102885040F20840A1
:1025F000C4F2010000680790089907988843079083
:102600000A988079C006002805D5FFE70899079841
:1026100008430790FFE7079840F20841C4F2010120
:10262000086040F20C40C4F201000068079008996D
:102630000798884307900A9880798006002805D576
:10264000FFE70899079808430790FFE7079840F2CB
:102650000C41C4F20101086040F20440C4F20100E0
:102660000068079008990798884307900A9880792E
:102670008007002805D5FFE70899079808430790C9
:10268000FFE7079840F20441C4F20101086040F2FC
:102690000040C4F201000068079008990798884339
:1026A00007900A988079C00728B1FFE70899079832
:1026B00008430790FFE7079840F20041C4F2010188
:1026C0000860FFE7FFE709980130099026E60CB0A3
:1026D0007047000082B00190ADF802108DF8012023
:1026E0009DF8010028B1FFE7BDF80200019988615B
:1026F00004E0BDF8020001998862FFE702B070476C
:1027000040F20420C2F200000068704783B00190DC
:102710000091019890F8410020283BD1FFE7FFE7A6
:10272000019890F84000012804D1FFE702208DF8BD
:102730000B0033E00199012081F84000FFE7FFE73B
:102740000199242081F8410001980168086820F06F
:102750000100086001980168086820F48050086052
:10276000009A0198016808681043086001980168A0
:10277000086840F0010008600199202081F84100BC
:10278000FFE70199002081F84000FFE700208DF865
:102790000B0003E002208DF80B00FFE79DF80B0013
:1027A00003B0704784B002900191029890F8410004
:1027B000202840D1FFE7FFE7029890F84000012869
:1027C00004D1FFE702208DF80F0038E002990120C4
:1027D00081F84000FFE7FFE70299242081F84100DB
:1027E00002980168086820F00100086002980068FB
:1027F00000680090009820F47060009001990098A3
:1028000040EA012000900098029909680860029847
:102810000168086840F0010008600299202081F8F2
:102820004100FFE70299002081F84000FFE7002007
:102830008DF80F0003E002208DF80F00FFE79DF8F0
:102840000F0004B07047000080B582B0009000987F
:1028500020B9FFE701208DF807007BE0009890F891
:10286000410040B9FFE70099002081F8400000983E
:1028700000F0ACFAFFE70099242081F841000098AD
:102880000168086820F0010008600098016840684D
:1028900020F07060086100980168886820F40040AA
:1028A00088600098C068012807D1FFE70098016898
:1028B000806840F40040886006E000980168806805
:1028C00040F404408860FFE70098C068022807D100
:1028D000FFE700980168486840F40060486006E03F
:1028E00000980168486820F400604860FFE700989D
:1028F0000168486848F20002C0F2002210434860B4
:1029000000980168C86820F40040C860009A116807
:10291000106953699269184340EA0220C860009A1E
:102920001168D069126A104308600098016808684D
:1029300040F001000860009900204864009A2021BE
:1029400082F8411000990863009981F842008DF8DF
:102950000700FFE79DF8070002B080BD80B588B092
:10296000DDF828C00690ADF816100492ADF80E30D0
:10297000069890F84100202840F0F680FFE7FFE736
:10298000069890F84000012804D1FFE702208DF856
:102990001F00EDE00699012081F84000FFE7FFE706
:1029A000FFF7AEFE0290069802996A4611604FF456
:1029B00000410122192302F077F820B1FFE701203E
:1029C0008DF81F00D4E00699222081F84100069975
:1029D000102081F842000699002048640499069A64
:1029E0005162BDF80E10069A518506994863069803
:1029F000408DB0F5807F14D3FFE70699FF2008854E
:102A00000698BDF8161090F82820EC4642F20043D4
:102A1000C8F20003CCF800304FF0807302F01AF8CF
:102A200014E00698408D069908850698BDF81610A2
:102A300090F82820EC4642F20043C8F20003CCF89C
:102A400000304FF0007302F005F8FFE7FFE706984B
:102A5000408D00285FD0FFE706980A99029A02F09D
:102A60007BF820B1FFE701208DF81F0080E0069879
:102A70000068406A0699496A08700699486A0130F8
:102A800048620699088D013808850699488D0138F5
:102A900048850698408DE8B3FFE70698008DC8BBCF
:102AA000FFE706980A9B02996A461160802100227E
:102AB00001F0FAFF20B1FFE701208DF81F0057E079
:102AC0000698408DB0F5807F11D3FFE70699FF206F
:102AD00008850698BDF8161090F82820EC460023CB
:102AE000CCF800304FF0807301F0B4FF11E006988D
:102AF000408D069908850698BDF8161090F8282094
:102B0000EC460023CCF800304FF0007301F0A2FF38
:102B1000FFE7FFE79BE706980A99029A02F0BAF8E6
:102B200020B1FFE701208DF81F0021E00698016821
:102B30002020C86106990A6851684EF60003CFF656
:102B4000006319405160069981F841000699002000
:102B500081F84200FFE70699002081F84000FFE776
:102B600000208DF81F0003E002208DF81F00FFE712
:102B70009DF81F0008B080BD80B588B0DDF828C082
:102B80000690ADF816100492ADF80E30069890F845
:102B90004100202840F01181FFE7FFE7069890F8F8
:102BA0004000012804D1FFE702208DF81F0008E152
:102BB0000699012081F84000FFE7FFE7FFF7A0FD3D
:102BC0000290069802996A4611604FF40041012272
:102BD000192301F069FF20B1FFE701208DF81F00E4
:102BE000EFE00699212081F841000699102081F834
:102BF00042000699002048640499069A5162BDF883
:102C00000E10069A5185069948630698408DB0F5D6
:102C1000807F07D3FFE70699FF2008854FF080707B
:102C2000019007E00698408D069908854FF00070E6
:102C30000190FFE70698008D10B3FFE70698016842
:102C4000406A007888620699486A013048620699AD
:102C5000488D013848850699088D01380885069801
:102C6000BDF81610028D0132019BEE4642F2000CB7
:102C7000C8F2000CCEF800C0D2B201F0EBFE0FE0BB
:102C80000698BDF8161090F82820019BEE4642F2F7
:102C9000000CC8F2000CCEF800C001F0DBFEFFE72C
:102CA000FFE70698408D00285ED0FFE706980A9956
:102CB000029A02F041F820B1FFE701208DF81F00D1
:102CC0007FE006980168406A007888620699486A41
:102CD000013048620699488D013848850699088D6B
:102CE000013808850698408DE8B3FFE70698008D07
:102CF000C8BBFFE706980A9B02996A4611608021CB
:102D0000002201F0D1FE20B1FFE701208DF81F0065
:102D100057E00698408DB0F5807F11D3FFE7069904
:102D2000FF2008850698BDF8161090F82820EC467C
:102D30000023CCF800304FF0807301F08BFE11E0DF
:102D40000698408D069908850698BDF8161090F8EB
:102D50002820EC460023CCF800304FF0007301F03F
:102D600079FEFFE7FFE79CE706980A99029A01F0CF
:102D700091FF20B1FFE701208DF81F0021E00698A8
:102D800001682020C86106990A6851684EF6000360
:102D9000CFF6006319405160069981F84100069909
:102DA000002081F84200FFE70699002081F84000EA
:102DB000FFE700208DF81F0003E002208DF81F00C0
:102DC000FFE79DF81F0008B080BD000080B5AAB0E5
:102DD000299000202890279026902590249002A8E2
:102DE0008821FDF731FB2998006845F20041C4F2C3
:102DF000000188423DD1FFE740200290002016905C
:102E000002A800F06BF918B1FFE7FEF7CFFBFFE770
:102E1000FFE741F24C00C4F20200016841F00201F8
:102E20000160006800F0020001900198FFE74FF494
:102E30004070249012202590012026900320279096
:102E40000420289040F20040C4F6000024A9FFF7B7
:102E50005FFAFFE741F25800C4F20200016841F452
:102E600000110160006800F4001000900098FFE776
:102E7000FFE72AB080BD000040F20400C2F200006B
:102E8000027840F20421C2F2000108681044086090
:102E90007047000080B582B0002000908DF80700D8
:102EA00042F20001C4F20201086840F48070086038
:102EB000032000F091F8009800F00EF820B1FFE731
:102EC00001208DF8070002E000F04AF8FFE79DF8C6
:102ED000070002B080BD000080B582B001900020E4
:102EE0008DF8030040F20400C2F20000007878B3CD
:102EF000FFE740F20000C2F20000006840F2040167
:102F0000C2F200010A784FF47A71B1FBF2F1B0FB22
:102F1000F1F001F037FBB0B9FFE701980F280DD8A9
:102F2000FFE701994FF0FF30002200F03BF80198D5
:102F300040F20801C2F20001086003E001208DF8B0
:102F40000300FFE703E001208DF80300FFE703E043
:102F500001208DF80300FFE79DF8030002B080BD5B
:102F600082B0FFE741F26000C4F20200016841F064
:102F700001010160006800F0010001900198FFE785
:102F8000FFE741F25800C4F20200016841F08051AD
:102F90000160006800F0805000900098FFE702B0E8
:102FA0007047000080B586B08DF817000491039239
:102FB0000020029003F0D8F902909DF917000190CB
:102FC00002980499039A02F077F90146019803F0F8
:102FD000D3F906B080BD000080B582B001900198A1
:102FE00003F0ECF902B080BD84B002900298B0F515
:102FF000007F4DD1FFE747F20000C4F200000068F7
:1030000000F4C060B0F5007F41D0FFE747F2000256
:10301000C4F200021168012060F34A21116040F2FD
:103020000001C2F200010968322251434DF6836269
:10303000C4F21B32A1FB022100EB91400190FFE79B
:1030400047F21400C4F2000001680020490500297D
:10305000009006D5FFE70198002818BF01200090D6
:10306000FFE70098C00720B1FFE701980138019001
:10307000E6E747F21400C4F20000006840050028AB
:1030800004D5FFE703208DF80F001BE0FFE715E0F4
:1030900047F20000C4F20000006800F4C060B0F520
:1030A000806F0AD0FFE747F20001C4F20001086810
:1030B000022262F34A200860FFE7FFE700208DF854
:1030C0000F00FFE79DF80F0004B0704747F20000C3
:1030D000C4F20000006800F4C060704780B588B09A
:1030E000079000208DF813008DF8120007984078A3
:1030F0000007002848D5FFE70798406E0290C0B14E
:10310000FFE70298B0F5800F1BD0FFE70298B0F5FB
:10311000000F05D0FFE70298B0F5400F19D019E075
:1031200041F20C01C4F20201086840F480300860EA
:1031300014E007980430002102F0F6F88DF813002F
:103140000CE007982030002102F034FA8DF81300CB
:1031500004E003E001208DF81300FFE79DF8130061
:1031600060B9FFE741F28801C4F20201086820F467
:103170004000079A526E1043086004E09DF8130067
:103180008DF81200FFE7FFE707984078C006002897
:1031900048D5FFE70798806E0190C0B1FFE701981E
:1031A000B0F1807F1BD0FFE70198B0F1007F05D020
:1031B000FFE70198B0F1407F19D019E041F20C010E
:1031C000C4F20201086840F48030086014E00798F7
:1031D0000430002102F0A8F88DF813000CE00798E5
:1031E0002030002102F0E6F98DF8130004E003E03E
:1031F00001208DF81300FFE79DF8130060B9FFE789
:1032000041F28801C4F20201086820F04070079A78
:10321000926E1043086004E09DF813008DF81200D0
:10322000FFE7FFE7079880788007002840F1B78024
:10323000FFE700208DF8110041F25800C4F20200AF
:103240000068C000002813D4FFE7FFE741F25800F0
:10325000C4F20200016841F080510160006800F092
:10326000805003900398FFE701208DF81100FFE7DD
:1032700047F20001C4F20001086840F48070086061
:10328000FFF73EFA0590FFE747F20000C4F20000A6
:103290000068C00500280CD4FFE7FFF731FA059954
:1032A000401A032804D3FFE703208DF8130000E041
:1032B000EAE79DF8130000285DD1FFE741F2900096
:1032C000C4F20200006800F4407006900698D0B185
:1032D000FFE706980799D1F88410884213D0FFE7DA
:1032E00041F29001C4F20201086820F44070069097
:1032F000086840F480300860086820F48030086076
:1033000006980860FFE79DF81800C007E0B1FFE7E6
:10331000FFF7F6F90590FFE741F29000C4F20200D2
:103320000068800700280ED4FFE7FFF7E9F9059948
:10333000401A41F28931884204D3FFE703208DF817
:10334000130000E0E8E7FFE79DF8130068B9FFE726
:1033500041F29001C4F20201086820F44070079A1B
:10336000D2F884201043086004E09DF813008DF823
:103370001200FFE704E09DF813008DF81200FFE74C
:103380009DF81100012809D1FFE741F25801C4F26C
:103390000201086820F080500860FFE7FFE7079807
:1033A0000078C00760B1FFE741F28801C4F2020172
:1033B000086820F00300079A926B10430860FFE74B
:1033C00007980078800700280CD5FFE741F28801B4
:1033D000C4F20201086820F00C00079AD26B104377
:1033E0000860FFE707980078400700280CD5FFE742
:1033F00041F28801C4F20201086820F03000079A07
:10340000126C10430860FFE7079800780007002857
:103410000CD5FFE741F28801C4F20201086820F0F0
:10342000C000079A526C10430860FFE707980078C5
:10343000C00600280CD5FFE741F28801C4F2020162
:10344000086820F44070079A926C10430860FFE708
:1034500007980078800600280CD5FFE741F2880124
:10346000C4F20201086820F44060079AD26C10434D
:103470000860FFE707984078800700280CD5FFE731
:1034800041F28801C4F20201086820F44020079A42
:10349000D26D10430860FFE7079840784007002886
:1034A0000CD5FFE741F28801C4F20201086820F45C
:1034B0004010079A126E10430860FFE707980078E3
:1034C000400600280CD5FFE741F28801C4F2020152
:1034D000086820F44050079A126D10430860FFE717
:1034E00007980078000600280CD5FFE741F2880114
:1034F000C4F20201086820F44040079A526D10435C
:103500000860FFE707984078C00760B1FFE741F225
:103510008801C4F20201086820F44030079A926DD5
:1035200010430860FFE7079840788006002833D5ED
:10353000FFE741F28801C4F20201086820F0406010
:10354000079AD26E104308600798C06EB0F1006F02
:1035500009D1FFE741F20C01C4F20201086840F40E
:103560008010086017E00798C06EB0F1806F11D12D
:10357000FFE707980430012101F0D6FE8DF8130013
:103580009DF8130028B1FFE79DF813008DF8120095
:10359000FFE7FFE7FFE7FFE70798807800070028CD
:1035A00034D5FFE741F28801C4F20201086820F037
:1035B0004060079A126F104308600798006FB0F1DF
:1035C000006F09D1FFE741F20C01C4F20201086863
:1035D00040F48010086018E00798006FB0F1806F29
:1035E00011D1FFE707980430012101F09DFE8DF80D
:1035F00013009DF8130028B1FFE79DF813008DF824
:103600001200FFE700E0FFE7FFE7FFE70798807899
:103610004007002834D5FFE741F28801C4F20201D7
:10362000086820F04060079A526F104308600798BE
:10363000406FB0F1006F09D1FFE741F20C01C4F215
:103640000201086840F48010086018E00798406F95
:10365000B0F1806F11D1FFE707980430012101F02C
:1036600063FE8DF813009DF8130028B1FFE79DF865
:1036700013008DF81200FFE700E0FFE7FFE7FFE728
:1036800007984078400600283BD5FFE741F28801C3
:10369000C4F20201086820F04050079A926F10436C
:1036A00008600798806FB0F1805F11D1FFE707983D
:1036B0000430022101F038FE8DF813009DF813004C
:1036C00028B1FFE79DF813008DF81200FFE717E01F
:1036D0000798806FB0F1005F11D1FFE707982030A5
:1036E000022101F067FF8DF813009DF8130028B147
:1036F000FFE79DF813008DF81200FFE7FFE7FFE7F3
:10370000FFE707984078000600280CD5FFE741F254
:103710008801C4F20201086820F08040079AD26F45
:1037200010430860FFE707988078C00768B1FFE79B
:1037300041F28801C4F20201086820F00040079AB3
:10374000D2F8802010430860FFE79DF8120008B00F
:1037500080BD000080B586B004900391049820B924
:10376000FFE701208DF8170041E1039842F20001C4
:10377000C4F20201096801F00701884216D9FFE787
:1037800042F20000C4F20200016821F00701039A2E
:1037900011430160006800F007000399884204D0DB
:1037A000FFE701208DF8170021E1FFE7049800787A
:1037B0008007002819D5FFE70498806841F20801C6
:1037C000C4F20201096801F0F00188420CD9FFE758
:1037D00041F20801C4F20201086820F0F000049AE6
:1037E000926810430860FFE7FFE704980078C0077D
:1037F000002873D0FFE70498406803280ED1FFE744
:1038000041F20000C4F2020000688001002804D4E4
:10381000FFE701208DF81700E9E034E004984068E4
:1038200002280ED1FFE741F20000C4F20200006856
:103830008003002804D4FFE701208DF81700D6E0AC
:1038400020E00498406870B9FFE741F20000C4F23C
:10385000020000688007002804D4FFE701208DF8EB
:103860001700C4E00DE041F20000C4F2020000685D
:103870004005002804D4FFE701208DF81700B6E0CA
:10388000FFE7FFE7FFE741F20801C4F20201086821
:1038900020F00300049A526810430860FEF730FFDE
:1038A0000290FFE741F20800C4F20200006800F055
:1038B0000C0004994968B0EB810F0ED0FFE7FEF7CA
:1038C0001FFF0299401A41F28931884204D3FFE771
:1038D00003208DF817008AE0E4E7FFE704980078FA
:1038E0008007002819D5FFE70498806841F2080195
:1038F000C4F20201096801F0F00188420CD2FFE72E
:1039000041F20801C4F20201086820F0F000049AB4
:10391000926810430860FFE7FFE7039842F2000156
:10392000C4F20201096801F00701884216D2FFE7DC
:1039300042F20000C4F20200016821F00701039A7C
:1039400011430160006800F007000399884204D029
:10395000FFE701208DF8170049E0FFE704980078A1
:10396000400700280CD5FFE741F20801C4F202012C
:10397000086820F4E060049AD26810430860FFE70A
:1039800004980078000700280DD5FFE741F20801F0
:10399000C4F20201086820F46050049A126940EAF7
:1039A000C2000860FFE700F055F841F20801C4F2D8
:1039B00002010968C9B20A0946F69871C0F6000109
:1039C000895C01F01F01C84040F20001C2F2000111
:1039D000086040F20800C2F200000068FFF77CFABD
:1039E0008DF807009DF807008DF81700FFE79DF898
:1039F000170006B080BD000040F20000C2F20000D7
:103A00000068704780B5FFF7F7FF41F20801C4F284
:103A100002010968C1F3022246F6A871C0F600014E
:103A2000895C01F01F01C84080BD000080B5FFF730
:103A3000E3FF41F20801C4F202010968C1F3C222A6
:103A400046F6A871C0F60001895C01F01F01C8406C
:103A500080BD000089B000200890079041F2080066
:103A6000C4F20200006800F00C00029041F20C0069
:103A7000C4F20200006800F003000190029840B117
:103A8000FFE702980C282ED1FFE7019801282AD1E0
:103A9000FFE741F20000C4F20200006800070028BE
:103AA00009D4FFE741F29400C4F202000068C0F3B9
:103AB0000320089008E041F20000C4F20200006810
:103AC000C0B200090890FFE7089946F6B070C0F64A
:103AD000000050F821000890029818B9FFE70898F4
:103AE0000790FFE716E00298042806D1FFE742F2AC
:103AF0000040C0F2F40007900BE00298082806D1BD
:103B0000FFE741F20020C0F27A00079000E0FFE7F3
:103B1000FFE7FFE702980C2846D1FFE741F20C00CF
:103B2000C4F20200006800F00300059005980090C0
:103B3000012814D0FFE70098022804D0FFE700987E
:103B4000032806D00CE042F20040C0F2F4000690D8
:103B500009E041F20020C0F27A00069003E0FFE79E
:103B600008980690FFE741F20C00C4F202000168D9
:103B700001F07002012101EB121103910699026814
:103B8000C2F306225143039AB1FBF2F10691006899
:103B900000F0C061022000EB1160049006980499C7
:103BA000B0FBF1F00790FFE7079809B070470000FD
:103BB000B0B58AB00890089828B9FFE701208DF8C1
:103BC000270000F0DBBC41F20800C4F202000068EC
:103BD00000F00C00059041F20C00C4F202000068F5
:103BE00000F00300049008980078C006002840F117
:103BF0002D81FFE7059850B1FFE705980C2840F0AC
:103C0000BD80FFE70498012840F0B880FFE741F24B
:103C10000000C4F2020000688007002809D5FFE711
:103C20000898806928B9FFE701208DF8270000F087
:103C3000A5BC0898006A019041F20000C4F202009D
:103C400000680007002809D5FFE741F20000C4F230
:103C50000200006800F0F000009009E041F29400DA
:103C6000C4F20200006800F4706000090090FFE7F1
:103C700001980099884229D9FFE70898006A01F065
:103C8000BFFD28B1FFE701208DF8270000F076BCCA
:103C9000FFE741F20001C4F20201086840F00800A9
:103CA0000860086820F0F000089A126A1043086063
:103CB000FFE741F20401C4F20201086820F47F40EA
:103CC000089AD26940EA022008602CE0FFE741F23E
:103CD0000001C4F20201086840F0080008600868AA
:103CE00020F0F000089A126A10430860FFE741F2E2
:103CF0000401C4F20201086820F47F40089AD269E6
:103D000040EA02200860059860B9FFE70898006A59
:103D100001F076FD28B1FFE701208DF8270000F0C3
:103D20002DBCFFE7FFE7FFF795FE41F20801C4F263
:103D300002010968C9B20A0946F69871C0F6000185
:103D4000895C01F01F01C84040F20001C2F200018D
:103D5000086040F20800C2F200000068FFF7BCF8FB
:103D60008DF81B009DF81B0030B1FFE79DF81B008C
:103D70008DF8270000F002BCFFE766E00898806934
:103D800000283FD0FFE741F20001C4F202010868B9
:103D900040F001000860FEF7B3FC0790FFE741F236
:103DA0000000C4F202000068800700280CD4FFE77E
:103DB000FEF7A6FC0799401A032804D3FFE7032067
:103DC0008DF82700DAE3EAE7FFE741F20001C4F2E9
:103DD0000201086840F008000860086820F0F00060
:103DE000089A126A10430860FFE741F20401C4F226
:103DF0000201086820F47F40089AD26940EA022054
:103E0000086021E041F20001C4F20201086820F0DC
:103E100001000860FEF774FC0790FFE741F2000024
:103E2000C4F202000068800700280CD5FFE7FEF707
:103E300067FC0799401A032804D3FFE703208DF895
:103E400027009BE3EAE7FFE7FFE7FFE70898007832
:103E5000C007002800F08B80FFE70598082808D0ED
:103E6000FFE705980C2816D1FFE70498032812D124
:103E7000FFE741F20000C4F202000068800300285E
:103E800008D5FFE70898406820B9FFE701208DF8C2
:103E9000270073E36AE0FFE708984068B0F5803FC9
:103EA00009D1FFE741F20001C4F20201086840F4C1
:103EB0008030086020E008984068B0F5A02F0DD150
:103EC000FFE741F20001C4F20201086840F48020DB
:103ED0000860086840F4803008600CE041F200019E
:103EE000C4F20201086820F480300860086820F4F9
:103EF00080200860FFE7FFE7FFE708984068D0B13F
:103F0000FFE7FEF7FDFB0790FFE741F20000C4F278
:103F100002000068800300280CD4FFE7FEF7F0FBE6
:103F20000799401A652804D3FFE703208DF827007E
:103F300024E3EAE719E0FEF7E3FB0790FFE741F22D
:103F40000000C4F202000068800300280CD5FFE7DF
:103F5000FEF7D6FB0799401A652804D3FFE7032034
:103F60008DF827000AE3EAE7FFE7FFE7FFE7089895
:103F700000788007002840F18280FFE70598042838
:103F800008D0FFE705980C2823D1FFE70498022802
:103F90001FD1FFE741F20000C4F2020000684005B3
:103FA000002808D5FFE70898C06820B9FFE701207E
:103FB0008DF82700E2E241F20401C4F20201086830
:103FC00020F0F850089A126940EA02600860FFE7A2
:103FD00054E00898C06870B3FFE741F20001C4F2F2
:103FE0000201086840F480700860FEF789FB0790C2
:103FF000FFE741F20000C4F202000068400500281B
:104000000CD4FFE7FEF77CFB0799401A032804D382
:10401000FFE703208DF82700B0E2EAE741F2040150
:10402000C4F20201086820F0F850089A126940EAC8
:104030000260086021E041F20001C4F20201086858
:1040400020F480700860FEF75BFB0790FFE741F209
:104050000000C4F202000068400500280CD5FFE70C
:10406000FEF74EFB0799401A032804D3FFE703200D
:104070008DF8270082E2EAE7FFE7FFE7FFE708980D
:1040800000780007002849D5FFE70898406910B379
:10409000FFE741F29401C4F20201086840F0010018
:1040A0000860FEF72DFB0790FFE741F29400C4F291
:1040B00002000068800700280CD4FFE7FEF720FB11
:1040C0000799401A032804D3FFE703208DF827003F
:1040D00054E2EAE721E041F29401C4F202010868E7
:1040E00020F001000860FEF70BFB0790FFE741F2AC
:1040F0009400C4F202000068800700280CD5FFE796
:10410000FEF7FEFA0799401A032804D3FFE70320BD
:104110008DF8270032E2EAE7FFE7FFE7089800782A
:104120004007002840F1C680FFE700208DF80F000F
:1041300041F25800C4F202000068C000002813D405
:10414000FFE7FFE741F25800C4F20200016841F0C6
:1041500080510160006800F0805002900298FFE7F3
:1041600001208DF80F00FFE747F20000C4F20000C5
:104170000068C005002822D4FFE747F20001C4F21E
:104180000001086840F480700860FEF7B9FA0790F3
:10419000FFE747F20000C4F200000068C0050028F5
:1041A0000CD4FFE7FEF7ACFA0799401A032804D3B2
:1041B000FFE703208DF82700E0E1EAE7FFE7FFE7EC
:1041C00008988068012809D1FFE741F29001C4F204
:1041D0000201086840F0010008601FE0089880684C
:1041E00005280DD1FFE741F29001C4F202010868F1
:1041F00040F004000860086840F0010008600CE02E
:1042000041F29001C4F20201086820F00100086048
:10421000086820F004000860FFE7FFE7FFE7089860
:104220008068E0B1FFE7FEF76BFA0790FFE741F225
:104230009000C4F202000068800700280ED4FFE757
:10424000FEF75EFA0799401A41F28931884204D399
:10425000FFE703208DF8270090E1E8E71BE0FEF779
:104260004FFA0790FFE741F29000C4F202000068A5
:10427000800700280ED5FFE7FEF742FA0799401A9B
:1042800041F28931884204D3FFE703208DF82700EB
:1042900074E1E8E7FFE79DF80F00012809D1FFE787
:1042A00041F25801C4F20201086820F08050086011
:1042B000FFE7FFE70898806A002800F05B81FFE7CE
:1042C0000898806A022840F01E81FFE741F20C0046
:1042D000C4F2020000680490049800F003000899FA
:1042E000C96A88423ED1FFE7049800F0700008993F
:1042F0000A6B6FF00F0101EB0211884232D1FFE728
:10430000049800F4FE400899496BB0EB012F29D1C5
:10431000FFE7049800F400300899896B073918BF4B
:10432000012188421ED1FFE7049800F4C0000899DB
:10433000CA6B0021CFF6E07101EA0251A1F500112C
:1043400088420FD1FFE7049800F0C06008990A6C1A
:104350004FF07E4101EA026101F17E41884200F0A6
:104360009D80FFE705980C2800F09380FFE741F25D
:104370000000C4F2020000684001002809D4FFE7F1
:1043800041F20000C4F202000068C000002804D519
:10439000FFE701208DF82700F0E041F20001C4F2B0
:1043A0000201086820F080700860FEF7A9F9079004
:1043B000FFE741F20000C4F202000068800100281B
:1043C0000CD5FFE7FEF79CF90799401A032804D3A0
:1043D000FFE703208DF82700D0E0EAE741F20C0167
:1043E000C4F20201086848F28C02CFF69D12104018
:1043F000089BDA6A1D6BD3F834E0D3F838C06FF04D
:104400000F0404EB0514224342EA0E22DC6B40F257
:10441000000ECFF6E07E0EEA045EAEF5001E42EA24
:104420000E02D3F840E04FF07E4303EA0E6303F13F
:104430007E431A430023CFF6FE7303EA4C331A433C
:104440001043086041F20002C4F20202106840F01A
:1044500080701060086840F080700860FEF750F9C6
:104460000790FFE741F20000C4F2020000688001FB
:1044700000280CD4FFE7FEF743F90799401A0328F8
:1044800004D3FFE703208DF8270077E0EAE7FFE792
:1044900003E001208DF8270070E033E041F20000D6
:1044A000C4F202000068800100282AD4FFE741F22C
:1044B0000001C4F20201086840F08070086041F217
:1044C0000C01C4F20201086840F080700860FEF739
:1044D00017F90790FFE741F20000C4F202000068FC
:1044E000800100280CD4FFE7FEF70AF90799401A6B
:1044F000032804D3FFE703208DF827003EE0EAE716
:10450000FFE7FFE735E005980C282DD0FFE741F2E3
:104510000001C4F20201086820F080700860FEF714
:10452000EFF80790FFE741F20000C4F202000068D4
:10453000800100280CD5FFE7FEF7E2F80799401A42
:10454000032804D3FFE703208DF8270016E0EAE7ED
:1045500041F20C01C4F2020108684FF6FC72CFF67A
:10456000EE621040086003E001208DF8270005E0AE
:10457000FFE7FFE700208DF82700FFE79DF8270001
:104580000AB0B0BD80B582B00190019801F0B2F9D7
:1045900002B080BD80B582B00090009820B9FFE7DE
:1045A00001208DF8070044E00098806908B1FFE71A
:1045B00000E0FFE70098C06F40B9FFE700990020D6
:1045C00081F87800009800F039F8FFE7009924207E
:1045D000C86700980168086820F00100086000982A
:1045E000406A20B1FFE7009801F0FEF9FFE700986C
:1045F00001F08CFB012804D1FFE701208DF80700B2
:1046000017E000980168486820F4904048600098DE
:104610000168886820F02A008860009801680868AE
:1046200040F001000860009801F082FA8DF8070060
:10463000FFE79DF8070002B080BD000080B5AAB07A
:10464000299000202890279026902590249002A859
:104650008821FBF7F9FE2998006844F20041C4F272
:10466000000188423AD1FFE7022002900020119019
:1046700002A8FEF733FD18B1FFE7FCF797FFFFE74D
:10468000FFE741F25800C4F20200016841F4003132
:104690000160006800F4003001900198FFE7FFE737
:1046A00041F24C00C4F20200016841F001010160D6
:1046B000006800F0010000900098FFE70C202490B3
:1046C0000220259000202690032027900720289084
:1046D0004FF0904024A9FDF71BFEFFE72AB080BDF4
:1046E00080B58AB008900791ADF81A200593089814
:1046F000C06F202840F08380FFE7079820B1FFE7D4
:10470000BDF81A0020B9FFE701208DF827007AE0F4
:1047100008990020C1F8840008992120C867FDF796
:10472000EFFF0290BDF81A000899A1F85000BDF8FB
:104730001A000899A1F8520008988068B0F5805FC7
:1047400009D1FFE70898006928B9FFE70020049025
:104750000798039004E00798049000200390FFE777
:10476000FFE70898B0F8520080B3FFE70898029B73
:1047700005996A4611608021002201F075FD38B16B
:10478000FFE708992020C86703208DF827003AE04A
:10479000049858B9FFE7039800886FF35F200899E1
:1047A0000968088503980230039008E004980078AF
:1047B000089909680885049801300490FFE7089972
:1047C000B1F852000138A1F85200CAE70898029BDC
:1047D00005996A4611604021002201F045FD38B17B
:1047E000FFE708992020C86703208DF827000AE01A
:1047F00008992020C86700208DF8270003E00220D8
:104800008DF82700FFE79DF827000AB080BD000063
:10481000FFE7FEE781B0009000980068806900F033
:1048200002010020B0EB510F05D0FFE700980168AE
:1048300000208862FFE7009800688069C00738B9E7
:10484000FFE700980168886940F001008861FFE790
:1048500001B0704780B58AB0099008910792002096
:104860008DF81B00099909688969059104900798DA
:1048700003909DF81400C006002840F18680FFE7F1
:10488000099801681020C861FFE7099800688069ED
:1048900000F0200200210846B1EB521F009007D122
:1048A000FFE79DF81B00B0FA80F040090090FFE799
:1048B0000098C007002857D0FFE70898013000286B
:1048C00051D0FFE7FDF71CFF0399401A0899884271
:1048D00004D8FFE70898002844D1FFE7099800684A
:1048E000406800F480400290099890F842008DF8EA
:1048F000070009980068806981B20020B0EBD13FC1
:1049000014D0FFE70298B0F5804F0FD0FFE79DF875
:10491000070020280AD0FFE709980168486840F49A
:1049200080404860FDF7ECFE0390FFE7FFE7099841
:104930000068806900F020010020B0EB511F10D109
:10494000FFE7FDF7DDFE0399401A1A2808D3FFE7B9
:10495000049840F02000049001208DF81B0000E036
:10496000E5E7FFE7FFE790E79DF81B0028B9FFE7C1
:10497000099801682020C861FFE7049840F004000E
:10498000049001208DF81B00FFE7099800688069FA
:1049900005909DF81500C00768B1FFE7049840F046
:1049A00001000490099801684FF48070C8610120EB
:1049B0008DF81B00FFE79DF81500400700280DD576
:1049C000FFE7049840F008000490099801684FF44C
:1049D0008060C86101208DF81B00FFE79DF815007D
:1049E000800700280DD5FFE7049840F002000490EE
:1049F000099801684FF40070C86101208DF81B0010
:104A0000FFE79DF81B0000B3FFE70998FFF702FFDF
:104A10000998016848684EF60002CFF6006210401F
:104A20004860049A0999486C104348640999202009
:104A300081F841000999002081F84200FFE70999B7
:104A4000002081F84000FFE7FFE79DF81B000AB057
:104A500080BD000084B0DDF810C00390ADF80A10EE
:104A60008DF809200193BDF80A006FF39F209DF88F
:104A7000091040EA0140019908430499084320F0D5
:104A800000400090039800684068049920EA515063
:104A900049F60041CFF600410840009908430399C8
:104AA0000968486004B0704780B586B0DDF820C062
:104AB000049003918DF80B200193FFE704980068A0
:104AC000806903990840401AB0FA80F040099DF8C7
:104AD0000B10884237D1FFE70198013090B3FFE710
:104AE000FDF70EFE0899401A0199884203D8FFE7A6
:104AF000019830BBFFE7049800688069039908407B
:104B0000401AB0FA80F040099DF80B10884217D186
:104B1000FFE70499486C40F0200048640499202085
:104B200081F841000499002081F84200FFE70499D0
:104B3000002081F84000FFE701208DF8170006E013
:104B4000FFE7FFE7BAE700208DF81700FFE79DF8C1
:104B5000170006B080BD000080B584B002900191BE
:104B60000092FFE702980068806900F004010020CD
:104B7000B0EB910F40F08680FFE702980199009A10
:104B8000FFF768FE20B1FFE701208DF80F007DE000
:104B900002980068806900F020010120B0EB511FED
:104BA00046D1FFE702980068806900F00401012007
:104BB000B0EB910F08D1FFE70298008D20B1FFE71D
:104BC00000208DF80F0061E002980068806900F015
:104BD00010010120B0EB111F08D1FFE70298016816
:104BE0001020C86102990420486403E00299002063
:104BF0004864FFE7029801682020C86102990A68AA
:104C000051684EF60003CFF60063194051600299D7
:104C100081F841000299002081F84200FFE70299E3
:104C2000002081F84000FFE701208DF80F002DE003
:104C3000FDF766FD0099401A0199884203D8FFE705
:104C40000198F0B9FFE702980068806900F004015C
:104C50000020B0EB910F13D1FFE70299486C40F0B0
:104C6000200048640299202081F84100FFE7029962
:104C7000002081F84000FFE701208DF80F0005E0DB
:104C8000FFE76FE700208DF80F00FFE79DF80F00AA
:104C900004B080BD80B584B0029001910092FFE71E
:104CA00002980068806900F020010020B0EB511FDD
:104CB00039D1FFE702980199009AFFF7CBFD20B1A7
:104CC000FFE701208DF80F0031E0FDF719FD009995
:104CD000401A0199884203D8FFE7019810BBFFE70B
:104CE00002980068806900F020010020B0EB511F9D
:104CF00017D1FFE70299486C40F020004864029900
:104D0000202081F841000299002081F84200FFE74D
:104D10000299002081F84000FFE701208DF80F0084
:104D200005E0FFE7BCE700208DF80F00FFE79DF8E6
:104D30000F0004B080BD000080B584B002900191E6
:104D40000092FFE702980068806900F002010020ED
:104D5000B0EB510F3ED1FFE702980199009AFFF79F
:104D600079FD20B1FFE701208DF80F0036E00198B2
:104D7000013070B3FFE7FDF7C3FC0099401A0199B9
:104D8000884203D8FFE7019810BBFFE7029800684C
:104D9000806900F002010020B0EB510F17D1FFE74E
:104DA0000299486C40F0200048640299202081F864
:104DB00041000299002081F84200FFE7029900209B
:104DC00081F84000FFE701208DF80F0006E0FFE7C3
:104DD000FFE7B7E700208DF80F00FFE79DF80F0011
:104DE00004B080BD81B00090009988684FF6C07211
:104DF000C5F6FF721040886001B0704781B0009026
:104E00000098806840F080504FF6C071C7F6FF717F
:104E100008400099886001B07047000081B00090A0
:104E20000098806800F0E07001B0704783B0029095
:104E300001910298019900EB810060300090009888
:104E4000006800F0F84003B07047000081B00090A7
:104E500000988068C0F3C00001B0704781B0009036
:104E600000988068C0F3407001B0704781B0009036
:104E70000098806800F0010001B0704781B0009098
:104E80000098806800F0010001B0704781B0009088
:104E900000988068C0F3007001B0704781B0009046
:104EA00000988068C0F3800001B0704781B0009026
:104EB00000988068C0F3800001B0704784B0039010
:104EC000029101920398029901F4407100EB911054
:104ED0003030009000980068029901F01F021F21F5
:104EE000914088430199C1F384619140084300993E
:104EF000086004B07047000084B0039002910192F2
:104F00000398029901F0007100EBD1501430009029
:104F1000009800680299C1F3045207219140884328
:104F20000199914008430099086004B0704700005F
:104F300083B00290019100920298D0F8B0000199DC
:104F40006FF3DF418843009A02F018034FF6FF72B7
:104F5000C0F20702DA40114008440299C1F8B000DB
:104F600003B0704782B0019000910198806820F4EE
:104F70007C10009908430199886002B070470000D6
:104F800082B0019000910198806820F0E070009953
:104F900008430199886002B07047000085B0049012
:104FA0000391029201930498039900EB8100603011
:104FB0000090009800684FF20001C0F2FF310140FC
:104FC000029800F0F840019A1043084340F0004076
:104FD0000099086005B0704784B003900291019277
:104FE0000398029900EB81006030009000980068FF
:104FF00020F00040019908430099086004B0704710
:1050000080B58CB0002101910B910A910991089112
:105010000791069105910491039140F2C400C2F2F8
:10502000000002900022C5F204020260416081602B
:10503000C160016104224261017641760122C261B0
:1050400080F820108162C16280F830104FF48052E5
:10505000426380F83810FCF77BFF18B1FFE7FCF7DC
:10506000A5FAFFE70020099040F2C400C2F2000058
:1050700009A9FCF7A3FA18B1FFE7FCF797FAFFE7D5
:105080002020C1F2F04003900620049000200590FB
:105090007F21069104210791089040F2C400C2F2DA
:1050A000000003A9FCF75EFB18B1FFE7FCF77EFAEE
:1050B000FFE70CB080BD000080B592B000201190D9
:1050C00010900F900E900D90FFE741F24C00C4F24B
:1050D0000200016841F004010160006800F0040072
:1050E0000C900C98FFE7FFE741F24C00C4F202007D
:1050F000016841F001010160006800F001000B90BF
:105100000B98FFE7FFE741F24C00C4F20200016890
:1051100041F002010160006800F002000A900A9864
:10512000FFE740F60000C4F60000029081210191E3
:1051300000220792FDF7CEFA079A4FF090400490B4
:105140004FF490710391FDF7C5FA079A40F20040C1
:10515000C4F6000008904FF483610591FDF7BAFA98
:105160000298079942F202020D920E910F910DA939
:105170000991FDF7CDF8019B0298079A09990D93C3
:10518000012306930E930F921092FDF7C1F8049835
:10519000079A099912230D930E920F92FDF7B8F812
:1051A000DDF80CC00498069B079A0999CDF834C025
:1051B0000E930F921092FDF7ABF8069B079A089892
:1051C00009990D930E920F92FDF7A2F8DDF814C025
:1051D000069B079A08980999CDF834C00E930F9250
:1051E0001092FDF795F812B080BD000080B582B036
:1051F00040F22810C2F20000019045F20041C4F2D2
:105200000001016049F6EC41C1F2900141600021CA
:1052100081600122C260016141618161C1610162FD
:10522000FDF712FB18B1FFE7FCF7C0F9FFE740F20A
:105230002810C2F200000021FDF768FA18B1FFE75C
:10524000FCF7B4F9FFE740F22810C2F20000002199
:10525000FDF7A8FA18B1FFE7FCF7A8F9FFE702B0DD
:1052600080BD000080B582B040F27C10C2F2000028
:10527000019044F20041C4F2000101604FF4165164
:10528000416000218160C16001610C224261816145
:10529000C1610162102141624FF480518163FFF7C7
:1052A00079F918B1FFE7FCF781F9FFE702B080BD9B
:1052B000FFE7FEE7FFE7FEE788B00790069105925B
:1052C000079800F0070004900498C0F10700052833
:1052D00003D3FFE70420019004E00498C0F1070025
:1052E0000190FFE70198039004980430062803D842
:1052F000FFE70020009003E0049803380090FFE7E8
:105300000098029006980399012202FA01F10139EE
:105310000840029B984005999A40013A1140084381
:1053200008B070477047000080B586B005900491C2
:1053300000208DF80B0041F20C00C4F2020000685E
:10534000800720B3FFE741F20C00C4F202000068BE
:1053500000F0030005990968884213D1FFE705981A
:10536000006878B1FFE741F20C00C4F20200006867
:1053700000F07001012000EB111005994968884286
:1053800004D0FFE701208DF80B00FFE75DE00598F2
:1053900000680190012808D0FFE70198022812D088
:1053A000FFE7019803281CD033E041F20000C4F26B
:1053B000020000688007002804D4FFE701208DF870
:1053C0000B00FFE729E041F20000C4F20200006890
:1053D0004005002804D4FFE701208DF80B00FFE70B
:1053E0001BE041F20000C4F20200006880030028C4
:1053F0000ED4FFE741F20000C4F20200006840034F
:10540000002804D4FFE701208DF80B00FFE7FFE739
:1054100003E001208DF80B00FFE79DF80B0098B921
:10542000FFE741F20C01C4F20201086820F07300AA
:10543000059B1A68D3F804C06FF00F0303EB0C133D
:105440001A4310430860FFE7FFE79DF80B000028B0
:1054500040F0AC80FFE741F20001C4F202010868AD
:1054600020F080600860FDF74BF90390FFE741F200
:105470000000C4F202000068000100280CD5FFE71C
:10548000FDF73EF90399401A032804D3FFE70320F0
:105490008DF80B0000E0EAE79DF80B00002840F0D3
:1054A0008480FFE70498C0B9FFE741F21001C4F21D
:1054B0000201086848F2FF02CFF6FD721040059A1B
:1054C0009368D2F80CC00022CFF6FE7202EA4C328A
:1054D00042EA03221043086037E0049801281AD1F9
:1054E000FFE741F21001C4F20201086848F2FF022E
:1054F000CFF69F721040059A9368D2F810C0002230
:10550000CFF6E07202EA0C52A2F5001242EA032240
:105510001043086018E041F21001C4F2020108686B
:1055200048F2FF02CFF6FF121040059A9368D2F8B6
:1055300014C04FF07E4202EA0C6202F17E4242EA5F
:10554000032210430860FFE7FFE741F20001C4F2C5
:105550000201086840F080600860FDF7D1F8039010
:10556000FFE741F20000C4F20200006800010028D9
:105570000CD4FFE7FDF7C4F80399401A032804D3BD
:10558000FFE703208DF80B0000E0EAE79DF80B0031
:1055900050B9FFE70598826941F21001C4F2020197
:1055A000086810430860FFE7FFE7FFE79DF80B007E
:1055B00006B080BD80B586B00590049100208DF8BE
:1055C0000B0041F20C00C4F202000068800720B317
:1055D000FFE741F20C00C4F20200006800F0030093
:1055E00005990968884213D1FFE70598006878B1EA
:1055F000FFE741F20C00C4F20200006800F0700105
:10560000012000EB111005994968884204D0FFE79A
:1056100001208DF80B00FFE75DE005980068019020
:10562000012808D0FFE70198022812D0FFE701986F
:1056300003281CD033E041F20000C4F202000068ED
:105640008007002804D4FFE701208DF80B00FFE756
:1056500029E041F20000C4F2020000684005002881
:1056600004D4FFE701208DF80B00FFE71BE041F2B7
:105670000000C4F202000068800300280ED4FFE797
:1056800041F20000C4F2020000684003002804D484
:10569000FFE701208DF80B00FFE7FFE703E00120A3
:1056A0008DF80B00FFE79DF80B0098B9FFE741F27A
:1056B0000C01C4F20201086820F07300059B1A680F
:1056C000D3F804C06FF00F0303EB0C131A4310431D
:1056D0000860FFE7FFE79DF80B00002840F08C8092
:1056E000FFE741F20001C4F20201086820F0805097
:1056F0000860FDF705F80390FFE741F20000C4F2EF
:1057000002000068800000280CD5FFE7FCF7F8FFD6
:105710000399401A032804D3FFE703208DF80B00F8
:1057200000E0EAE79DF80B00002864D1FFE7049849
:10573000C0B9FFE741F21401C4F20201086848F25F
:10574000FF02CFF6FD721040059A9368D2F80CC0A4
:105750000022CFF6FE7202EA4C3242EA03221043E4
:10576000086018E041F21401C4F20201086848F22E
:10577000FF02CFF6FF121040059A9368D2F810C0CE
:105780004FF07E4202EA0C6202F17E4242EA0322BC
:1057900010430860FFE741F20001C4F2020108680B
:1057A00040F080500860FCF7ABFF0390FFE741F248
:1057B0000000C4F202000068800000280CD4FFE75B
:1057C000FCF79EFF0399401A032804D3FFE7032048
:1057D0008DF80B0000E0EAE79DF80B0050B9FFE7F9
:1057E0000598426941F21401C4F2020108681043AD
:1057F0000860FFE7FFE7FFE79DF80B0006B080BDFC
:1058000080B586B004900020029041F25800C4F2A6
:1058100002000068C000002804D5FFE7FDF756FC31
:1058200003901AE0FFE741F25800C4F20200016859
:1058300041F080510160006800F0805001900198B3
:10584000FFE7FDF743FC039041F25801C4F2020167
:10585000086820F080500860FFE70398B0F5007FEB
:1058600010D1FFE7049881280BD3FFE70498A12803
:1058700003D3FFE70220029002E001200290FFE73D
:10588000FFE717E00498812803D3FFE70320029085
:105890000FE00498802803D1FFE70220029007E080
:1058A0000498702803D1FFE701200290FFE7FFE78B
:1058B000FFE7FFE742F20000C4F20200016821F0B6
:1058C0000701029A11430160006800F00700029985
:1058D000884204D0FFE701208DF8170003E0002084
:1058E0008DF81700FFE79DF8170006B080BD000097
:1058F0007047000080B582B0009000980138B0F188
:10590000807F03D3FFE70120019019E00098013860
:105910004EF21401CEF2000108604FF0FF300F216B
:1059200000F02AFD4EF21801CEF2000100200860BE
:105930004EF21002CEF20002072111600190FFE743
:10594000019802B080BD000080B5FDF795FA80BDDA
:1059500080B596B005A84421FAF776FD00200490A2
:1059600003900290019000904FF40070FDF73CFB13
:1059700018B1FFE7FBF71AFEFFE7022005904FF48E
:1059800080710891102109910F90109001211191BF
:105990000A211291072113911490159005A8FEF782
:1059A00007F918B1FFE7FBF701FEFFE70F200090B2
:1059B0000320019000200290039004906846042187
:1059C000FDF7C8FE18B1FFE7FBF7F0FDFFE716B0E3
:1059D00080BD00004EF68851CEF20001086840F408
:1059E000700008607047000081B00090009890F847
:1059F0002400000700280BD5FFE7009800684068E6
:105A000020F40040009A1168526B10434860FFE791
:105A1000009890F82400C00758B1FFE7009800688C
:105A2000406820F40030009A1168926A1043486080
:105A3000FFE7009890F82400800700280BD5FFE7C7
:105A400000980068406820F48030009A1168D26A9B
:105A500010434860FFE7009890F8240040070028B2
:105A60000BD5FFE700980068406820F48020009A7A
:105A70001168126B10434860FFE7009890F824000B
:105A8000C00600280BD5FFE700980068806820F466
:105A90008050009A1168926B10438860FFE700986D
:105AA00090F82400800600280BD5FFE700980068D6
:105AB000806820F40050009A1168D26B104388600F
:105AC000FFE7009890F82400400600281CD5FFE767
:105AD00000980068406820F48010009A1168126CE9
